{
  "_format": "hh-sol-artifact-1",
  "contractName": "MyNFT",
  "sourceName": "contracts/MyNFT.sol",
  "abi": [
    {
      "inputs": [],
      "stateMutability": "nonpayable",
      "type": "constructor"
    },
    {
      "anonymous": false,
      "inputs": [
        {
          "indexed": true,
          "internalType": "address",
          "name": "owner",
          "type": "address"
        },
        {
          "indexed": true,
          "internalType": "address",
          "name": "approved",
          "type": "address"
        },
        {
          "indexed": true,
          "internalType": "uint256",
          "name": "tokenId",
          "type": "uint256"
        }
      ],
      "name": "Approval",
      "type": "event"
    },
    {
      "anonymous": false,
      "inputs": [
        {
          "indexed": true,
          "internalType": "address",
          "name": "owner",
          "type": "address"
        },
        {
          "indexed": true,
          "internalType": "address",
          "name": "operator",
          "type": "address"
        },
        {
          "indexed": false,
          "internalType": "bool",
          "name": "approved",
          "type": "bool"
        }
      ],
      "name": "ApprovalForAll",
      "type": "event"
    },
    {
      "anonymous": false,
      "inputs": [
        {
          "indexed": true,
          "internalType": "bytes32",
          "name": "role",
          "type": "bytes32"
        },
        {
          "indexed": true,
          "internalType": "bytes32",
          "name": "previousAdminRole",
          "type": "bytes32"
        },
        {
          "indexed": true,
          "internalType": "bytes32",
          "name": "newAdminRole",
          "type": "bytes32"
        }
      ],
      "name": "RoleAdminChanged",
      "type": "event"
    },
    {
      "anonymous": false,
      "inputs": [
        {
          "indexed": true,
          "internalType": "bytes32",
          "name": "role",
          "type": "bytes32"
        },
        {
          "indexed": true,
          "internalType": "address",
          "name": "account",
          "type": "address"
        },
        {
          "indexed": true,
          "internalType": "address",
          "name": "sender",
          "type": "address"
        }
      ],
      "name": "RoleGranted",
      "type": "event"
    },
    {
      "anonymous": false,
      "inputs": [
        {
          "indexed": true,
          "internalType": "bytes32",
          "name": "role",
          "type": "bytes32"
        },
        {
          "indexed": true,
          "internalType": "address",
          "name": "account",
          "type": "address"
        },
        {
          "indexed": true,
          "internalType": "address",
          "name": "sender",
          "type": "address"
        }
      ],
      "name": "RoleRevoked",
      "type": "event"
    },
    {
      "anonymous": false,
      "inputs": [
        {
          "indexed": true,
          "internalType": "address",
          "name": "from",
          "type": "address"
        },
        {
          "indexed": true,
          "internalType": "address",
          "name": "to",
          "type": "address"
        },
        {
          "indexed": true,
          "internalType": "uint256",
          "name": "tokenId",
          "type": "uint256"
        }
      ],
      "name": "Transfer",
      "type": "event"
    },
    {
      "inputs": [],
      "name": "DEFAULT_ADMIN_ROLE",
      "outputs": [
        {
          "internalType": "bytes32",
          "name": "",
          "type": "bytes32"
        }
      ],
      "stateMutability": "view",
      "type": "function"
    },
    {
      "inputs": [],
      "name": "MINTER_ROLE",
      "outputs": [
        {
          "internalType": "bytes32",
          "name": "",
          "type": "bytes32"
        }
      ],
      "stateMutability": "view",
      "type": "function"
    },
    {
      "inputs": [
        {
          "internalType": "address",
          "name": "to",
          "type": "address"
        },
        {
          "internalType": "uint256",
          "name": "tokenId",
          "type": "uint256"
        }
      ],
      "name": "approve",
      "outputs": [],
      "stateMutability": "nonpayable",
      "type": "function"
    },
    {
      "inputs": [
        {
          "internalType": "address",
          "name": "owner",
          "type": "address"
        }
      ],
      "name": "balanceOf",
      "outputs": [
        {
          "internalType": "uint256",
          "name": "",
          "type": "uint256"
        }
      ],
      "stateMutability": "view",
      "type": "function"
    },
    {
      "inputs": [
        {
          "internalType": "uint256",
          "name": "tokenId",
          "type": "uint256"
        }
      ],
      "name": "burn",
      "outputs": [],
      "stateMutability": "nonpayable",
      "type": "function"
    },
    {
      "inputs": [
        {
          "internalType": "uint256",
          "name": "tokenId",
          "type": "uint256"
        }
      ],
      "name": "getApproved",
      "outputs": [
        {
          "internalType": "address",
          "name": "",
          "type": "address"
        }
      ],
      "stateMutability": "view",
      "type": "function"
    },
    {
      "inputs": [
        {
          "internalType": "bytes32",
          "name": "role",
          "type": "bytes32"
        }
      ],
      "name": "getRoleAdmin",
      "outputs": [
        {
          "internalType": "bytes32",
          "name": "",
          "type": "bytes32"
        }
      ],
      "stateMutability": "view",
      "type": "function"
    },
    {
      "inputs": [
        {
          "internalType": "bytes32",
          "name": "role",
          "type": "bytes32"
        },
        {
          "internalType": "address",
          "name": "account",
          "type": "address"
        }
      ],
      "name": "grantRole",
      "outputs": [],
      "stateMutability": "nonpayable",
      "type": "function"
    },
    {
      "inputs": [
        {
          "internalType": "bytes32",
          "name": "role",
          "type": "bytes32"
        },
        {
          "internalType": "address",
          "name": "account",
          "type": "address"
        }
      ],
      "name": "hasRole",
      "outputs": [
        {
          "internalType": "bool",
          "name": "",
          "type": "bool"
        }
      ],
      "stateMutability": "view",
      "type": "function"
    },
    {
      "inputs": [
        {
          "internalType": "address",
          "name": "owner",
          "type": "address"
        },
        {
          "internalType": "address",
          "name": "operator",
          "type": "address"
        }
      ],
      "name": "isApprovedForAll",
      "outputs": [
        {
          "internalType": "bool",
          "name": "",
          "type": "bool"
        }
      ],
      "stateMutability": "view",
      "type": "function"
    },
    {
      "inputs": [],
      "name": "name",
      "outputs": [
        {
          "internalType": "string",
          "name": "",
          "type": "string"
        }
      ],
      "stateMutability": "view",
      "type": "function"
    },
    {
      "inputs": [
        {
          "internalType": "uint256",
          "name": "",
          "type": "uint256"
        }
      ],
      "name": "nftHolderAttributes",
      "outputs": [
        {
          "internalType": "string",
          "name": "name",
          "type": "string"
        },
        {
          "internalType": "string",
          "name": "imageURI",
          "type": "string"
        },
        {
          "internalType": "uint256",
          "name": "percievedLoudness",
          "type": "uint256"
        },
        {
          "internalType": "uint256",
          "name": "tailLength",
          "type": "uint256"
        },
        {
          "internalType": "uint256",
          "name": "bodyLength",
          "type": "uint256"
        },
        {
          "internalType": "uint256",
          "name": "dynamicRange",
          "type": "uint256"
        },
        {
          "internalType": "uint256",
          "name": "duration",
          "type": "uint256"
        }
      ],
      "stateMutability": "view",
      "type": "function"
    },
    {
      "inputs": [
        {
          "internalType": "address",
          "name": "",
          "type": "address"
        }
      ],
      "name": "nftHolders",
      "outputs": [
        {
          "internalType": "uint256",
          "name": "",
          "type": "uint256"
        }
      ],
      "stateMutability": "view",
      "type": "function"
    },
    {
      "inputs": [
        {
          "internalType": "uint256",
          "name": "tokenId",
          "type": "uint256"
        }
      ],
      "name": "ownerOf",
      "outputs": [
        {
          "internalType": "address",
          "name": "",
          "type": "address"
        }
      ],
      "stateMutability": "view",
      "type": "function"
    },
    {
      "inputs": [
        {
          "internalType": "bytes32",
          "name": "role",
          "type": "bytes32"
        },
        {
          "internalType": "address",
          "name": "account",
          "type": "address"
        }
      ],
      "name": "renounceRole",
      "outputs": [],
      "stateMutability": "nonpayable",
      "type": "function"
    },
    {
      "inputs": [
        {
          "internalType": "bytes32",
          "name": "role",
          "type": "bytes32"
        },
        {
          "internalType": "address",
          "name": "account",
          "type": "address"
        }
      ],
      "name": "revokeRole",
      "outputs": [],
      "stateMutability": "nonpayable",
      "type": "function"
    },
    {
      "inputs": [
        {
          "internalType": "address",
          "name": "to",
          "type": "address"
        },
        {
          "internalType": "string",
          "name": "_name",
          "type": "string"
        },
        {
          "internalType": "string",
          "name": "_imageURI",
          "type": "string"
        },
        {
          "internalType": "uint256",
          "name": "_percievedLoudness",
          "type": "uint256"
        },
        {
          "internalType": "uint256",
          "name": "_tailLength",
          "type": "uint256"
        },
        {
          "internalType": "uint256",
          "name": "_bodyLength",
          "type": "uint256"
        },
        {
          "internalType": "uint256",
          "name": "_dynamicRange",
          "type": "uint256"
        },
        {
          "internalType": "uint256",
          "name": "_duration",
          "type": "uint256"
        }
      ],
      "name": "safeMint",
      "outputs": [],
      "stateMutability": "nonpayable",
      "type": "function"
    },
    {
      "inputs": [
        {
          "internalType": "address",
          "name": "from",
          "type": "address"
        },
        {
          "internalType": "address",
          "name": "to",
          "type": "address"
        },
        {
          "internalType": "uint256",
          "name": "tokenId",
          "type": "uint256"
        }
      ],
      "name": "safeTransferFrom",
      "outputs": [],
      "stateMutability": "nonpayable",
      "type": "function"
    },
    {
      "inputs": [
        {
          "internalType": "address",
          "name": "from",
          "type": "address"
        },
        {
          "internalType": "address",
          "name": "to",
          "type": "address"
        },
        {
          "internalType": "uint256",
          "name": "tokenId",
          "type": "uint256"
        },
        {
          "internalType": "bytes",
          "name": "data",
          "type": "bytes"
        }
      ],
      "name": "safeTransferFrom",
      "outputs": [],
      "stateMutability": "nonpayable",
      "type": "function"
    },
    {
      "inputs": [
        {
          "internalType": "address",
          "name": "operator",
          "type": "address"
        },
        {
          "internalType": "bool",
          "name": "approved",
          "type": "bool"
        }
      ],
      "name": "setApprovalForAll",
      "outputs": [],
      "stateMutability": "nonpayable",
      "type": "function"
    },
    {
      "inputs": [
        {
          "internalType": "bytes4",
          "name": "interfaceId",
          "type": "bytes4"
        }
      ],
      "name": "supportsInterface",
      "outputs": [
        {
          "internalType": "bool",
          "name": "",
          "type": "bool"
        }
      ],
      "stateMutability": "view",
      "type": "function"
    },
    {
      "inputs": [],
      "name": "symbol",
      "outputs": [
        {
          "internalType": "string",
          "name": "",
          "type": "string"
        }
      ],
      "stateMutability": "view",
      "type": "function"
    },
    {
      "inputs": [
        {
          "internalType": "uint256",
          "name": "_tokenId",
          "type": "uint256"
        }
      ],
      "name": "tokenURI",
      "outputs": [
        {
          "internalType": "string",
          "name": "",
          "type": "string"
        }
      ],
      "stateMutability": "view",
      "type": "function"
    },
    {
      "inputs": [
        {
          "internalType": "address",
          "name": "from",
          "type": "address"
        },
        {
          "internalType": "address",
          "name": "to",
          "type": "address"
        },
        {
          "internalType": "uint256",
          "name": "tokenId",
          "type": "uint256"
        }
      ],
      "name": "transferFrom",
      "outputs": [],
      "stateMutability": "nonpayable",
      "type": "function"
    }
  ],
  "bytecode": "0x60806040523480156200001157600080fd5b506040518060400160405280600781526020017f4d79546f6b656e000000000000000000000000000000000000000000000000008152506040518060400160405280600381526020017f4d544b000000000000000000000000000000000000000000000000000000000081525081600090816200008f9190620004d0565b508060019081620000a19190620004d0565b505050620000b96000801b33620000f160201b60201c565b620000eb7f9f2df0fed2c77648de5860a4cc508cd0818c85b8b8a1ab4ceeef8d981c8956a633620000f160201b60201c565b620005b7565b620001038282620001e360201b60201c565b620001df5760016006600084815260200190815260200160002060000160008373ffffffffffffffffffffffffffffffffffffffff1673ffffffffffffffffffffffffffffffffffffffff16815260200190815260200160002060006101000a81548160ff021916908315150217905550620001846200024e60201b60201c565b73ffffffffffffffffffffffffffffffffffffffff168173ffffffffffffffffffffffffffffffffffffffff16837f2f8788117e7eff1d82e926ec794901d17c78024a50270940304540a733656f0d60405160405180910390a45b5050565b60006006600084815260200190815260200160002060000160008373ffffffffffffffffffffffffffffffffffffffff1673ffffffffffffffffffffffffffffffffffffffff16815260200190815260200160002060009054906101000a900460ff16905092915050565b600033905090565b600081519050919050565b7f4e487b7100000000000000000000000000000000000000000000000000000000600052604160045260246000fd5b7f4e487b7100000000000000000000000000000000000000000000000000000000600052602260045260246000fd5b60006002820490506001821680620002d857607f821691505b602082108103620002ee57620002ed62000290565b5b50919050565b60008190508160005260206000209050919050565b60006020601f8301049050919050565b600082821b905092915050565b600060088302620003587fffffffffffffffffffffffffffffffffffffffffffffffffffffffffffffffff8262000319565b62000364868362000319565b95508019841693508086168417925050509392505050565b6000819050919050565b6000819050919050565b6000620003b1620003ab620003a5846200037c565b62000386565b6200037c565b9050919050565b6000819050919050565b620003cd8362000390565b620003e5620003dc82620003b8565b84845462000326565b825550505050565b600090565b620003fc620003ed565b62000409818484620003c2565b505050565b5b81811015620004315762000425600082620003f2565b6001810190506200040f565b5050565b601f82111562000480576200044a81620002f4565b620004558462000309565b8101602085101562000465578190505b6200047d620004748562000309565b8301826200040e565b50505b505050565b600082821c905092915050565b6000620004a56000198460080262000485565b1980831691505092915050565b6000620004c0838362000492565b9150826002028217905092915050565b620004db8262000256565b67ffffffffffffffff811115620004f757620004f662000261565b5b620005038254620002bf565b6200051082828562000435565b600060209050601f83116001811462000548576000841562000533578287015190505b6200053f8582620004b2565b865550620005af565b601f1984166200055886620002f4565b60005b8281101562000582578489015182556001820191506020850194506020810190506200055b565b86831015620005a257848901516200059e601f89168262000492565b8355505b6001600288020188555050505b505050505050565b61475380620005c76000396000f3fe608060405234801561001057600080fd5b50600436106101585760003560e01c806370a08231116100c3578063a22cb4651161007c578063a22cb46514610401578063b88d4fde1461041d578063c87b56dd14610439578063d539139314610469578063d547741f14610487578063e985e9c5146104a357610158565b806370a08231146102ff5780637df124a11461032f57806391d148541461035f57806395d89b411461038f57806398da4c95146103ad578063a217fddf146103e357610158565b80632c44e6f2116101155780632c44e6f2146102435780632f2ff15d1461025f57806336568abe1461027b57806342842e0e1461029757806342966c68146102b35780636352211e146102cf57610158565b806301ffc9a71461015d57806306fdde031461018d578063081812fc146101ab578063095ea7b3146101db57806323b872dd146101f7578063248a9ca314610213575b600080fd5b61017760048036038101906101729190612af4565b6104d3565b6040516101849190612b3c565b60405180910390f35b6101956104e5565b6040516101a29190612be7565b60405180910390f35b6101c560048036038101906101c09190612c3f565b610577565b6040516101d29190612cad565b60405180910390f35b6101f560048036038101906101f09190612cf4565b6105bd565b005b610211600480360381019061020c9190612d34565b6106d4565b005b61022d60048036038101906102289190612dbd565b610734565b60405161023a9190612df9565b60405180910390f35b61025d60048036038101906102589190612f49565b610754565b005b61027960048036038101906102749190613037565b610956565b005b61029560048036038101906102909190613037565b610977565b005b6102b160048036038101906102ac9190612d34565b6109fa565b005b6102cd60048036038101906102c89190612c3f565b610a1a565b005b6102e960048036038101906102e49190612c3f565b610a76565b6040516102f69190612cad565b60405180910390f35b61031960048036038101906103149190613077565b610afc565b60405161032691906130b3565b60405180910390f35b61034960048036038101906103449190613077565b610bb3565b60405161035691906130b3565b60405180910390f35b61037960048036038101906103749190613037565b610bcb565b6040516103869190612b3c565b60405180910390f35b610397610c36565b6040516103a49190612be7565b60405180910390f35b6103c760048036038101906103c29190612c3f565b610cc8565b6040516103da97969594939291906130ce565b60405180910390f35b6103eb610e1a565b6040516103f89190612df9565b60405180910390f35b61041b60048036038101906104169190613177565b610e21565b005b61043760048036038101906104329190613258565b610e37565b005b610453600480360381019061044e9190612c3f565b610e99565b6040516104609190612be7565b60405180910390f35b6104716110e6565b60405161047e9190612df9565b60405180910390f35b6104a1600480360381019061049c9190613037565b61110a565b005b6104bd60048036038101906104b891906132db565b61112b565b6040516104ca9190612b3c565b60405180910390f35b60006104de826111bf565b9050919050565b6060600080546104f49061334a565b80601f01602080910402602001604051908101604052809291908181526020018280546105209061334a565b801561056d5780601f106105425761010080835404028352916020019161056d565b820191906000526020600020905b81548152906001019060200180831161055057829003601f168201915b5050505050905090565b600061058282611239565b6004600083815260200190815260200160002060009054906101000a900473ffffffffffffffffffffffffffffffffffffffff169050919050565b60006105c882610a76565b90508073ffffffffffffffffffffffffffffffffffffffff168373ffffffffffffffffffffffffffffffffffffffff1603610638576040517f08c379a000000000000000000000000000000000000000000000000000000000815260040161062f906133ed565b60405180910390fd5b8073ffffffffffffffffffffffffffffffffffffffff16610657611284565b73ffffffffffffffffffffffffffffffffffffffff161480610686575061068581610680611284565b61112b565b5b6106c5576040517f08c379a00000000000000000000000000000000000000000000000000000000081526004016106bc9061347f565b60405180910390fd5b6106cf838361128c565b505050565b6106e56106df611284565b82611345565b610724576040517f08c379a000000000000000000000000000000000000000000000000000000000815260040161071b90613511565b60405180910390fd5b61072f8383836113da565b505050565b600060066000838152602001908152602001600020600101549050919050565b7f9f2df0fed2c77648de5860a4cc508cd0818c85b8b8a1ab4ceeef8d981c8956a661077e816116d3565b600061078a60076116e7565b90506107968a826116f5565b80600860008c73ffffffffffffffffffffffffffffffffffffffff1673ffffffffffffffffffffffffffffffffffffffff168152602001908152602001600020819055506040518060e001604052808a81526020018981526020018881526020018781526020018681526020018581526020018481525060096000838152602001908152602001600020600082015181600001908161083591906136dd565b50602082015181600101908161084b91906136dd565b5060408201518160020155606082015181600301556080820151816004015560a0820151816005015560c082015181600601559050506108a46040518060600160405280602e81526020016146f0602e9139828b611713565b600a600960008381526020019081526020016000209080600181540180825580915050600190039060005260206000209060070201600090919091909150600082018160000190816108f691906137c5565b506001820181600101908161090b91906137c5565b506002820154816002015560038201548160030155600482015481600401556005820154816005015560068201548160060155505061094a60076117b2565b50505050505050505050565b61095f82610734565b610968816116d3565b61097283836117c8565b505050565b61097f611284565b73ffffffffffffffffffffffffffffffffffffffff168173ffffffffffffffffffffffffffffffffffffffff16146109ec576040517f08c379a00000000000000000000000000000000000000000000000000000000081526004016109e39061391f565b60405180910390fd5b6109f682826118a9565b5050565b610a1583838360405180602001604052806000815250610e37565b505050565b610a2b610a25611284565b82611345565b610a6a576040517f08c379a0000000000000000000000000000000000000000000000000000000008152600401610a6190613511565b60405180910390fd5b610a738161198b565b50565b600080610a8283611ad9565b9050600073ffffffffffffffffffffffffffffffffffffffff168173ffffffffffffffffffffffffffffffffffffffff1603610af3576040517f08c379a0000000000000000000000000000000000000000000000000000000008152600401610aea9061398b565b60405180910390fd5b80915050919050565b60008073ffffffffffffffffffffffffffffffffffffffff168273ffffffffffffffffffffffffffffffffffffffff1603610b6c576040517f08c379a0000000000000000000000000000000000000000000000000000000008152600401610b6390613a1d565b60405180910390fd5b600360008373ffffffffffffffffffffffffffffffffffffffff1673ffffffffffffffffffffffffffffffffffffffff168152602001908152602001600020549050919050565b60086020528060005260406000206000915090505481565b60006006600084815260200190815260200160002060000160008373ffffffffffffffffffffffffffffffffffffffff1673ffffffffffffffffffffffffffffffffffffffff16815260200190815260200160002060009054906101000a900460ff16905092915050565b606060018054610c459061334a565b80601f0160208091040260200160405190810160405280929190818152602001828054610c719061334a565b8015610cbe5780601f10610c9357610100808354040283529160200191610cbe565b820191906000526020600020905b815481529060010190602001808311610ca157829003601f168201915b5050505050905090565b6009602052806000526040600020600091509050806000018054610ceb9061334a565b80601f0160208091040260200160405190810160405280929190818152602001828054610d179061334a565b8015610d645780601f10610d3957610100808354040283529160200191610d64565b820191906000526020600020905b815481529060010190602001808311610d4757829003601f168201915b505050505090806001018054610d799061334a565b80601f0160208091040260200160405190810160405280929190818152602001828054610da59061334a565b8015610df25780601f10610dc757610100808354040283529160200191610df2565b820191906000526020600020905b815481529060010190602001808311610dd557829003601f168201915b5050505050908060020154908060030154908060040154908060050154908060060154905087565b6000801b81565b610e33610e2c611284565b8383611b16565b5050565b610e48610e42611284565b83611345565b610e87576040517f08c379a0000000000000000000000000000000000000000000000000000000008152600401610e7e90613511565b60405180910390fd5b610e9384848484611c82565b50505050565b60606000600960008481526020019081526020016000206040518060e0016040529081600082018054610ecb9061334a565b80601f0160208091040260200160405190810160405280929190818152602001828054610ef79061334a565b8015610f445780601f10610f1957610100808354040283529160200191610f44565b820191906000526020600020905b815481529060010190602001808311610f2757829003601f168201915b50505050508152602001600182018054610f5d9061334a565b80601f0160208091040260200160405190810160405280929190818152602001828054610f899061334a565b8015610fd65780601f10610fab57610100808354040283529160200191610fd6565b820191906000526020600020905b815481529060010190602001808311610fb957829003601f168201915b5050505050815260200160028201548152602001600382015481526020016004820154815260200160058201548152602001600682015481525050905060006110228260400151611cde565b905060006110338360600151611cde565b905060006110448460800151611cde565b905060006110558560c00151611cde565b905060006110668660a00151611cde565b905060006110b0876000015161107b8b611cde565b8960200151898989888a60405160200161109c989796959493929190613e7b565b604051602081830303815290604052611dac565b90506000816040516020016110c59190613f9c565b60405160208183030381529060405290508098505050505050505050919050565b7f9f2df0fed2c77648de5860a4cc508cd0818c85b8b8a1ab4ceeef8d981c8956a681565b61111382610734565b61111c816116d3565b61112683836118a9565b505050565b6000600560008473ffffffffffffffffffffffffffffffffffffffff1673ffffffffffffffffffffffffffffffffffffffff16815260200190815260200160002060008373ffffffffffffffffffffffffffffffffffffffff1673ffffffffffffffffffffffffffffffffffffffff16815260200190815260200160002060009054906101000a900460ff16905092915050565b60007f7965db0b000000000000000000000000000000000000000000000000000000007bffffffffffffffffffffffffffffffffffffffffffffffffffffffff1916827bffffffffffffffffffffffffffffffffffffffffffffffffffffffff19161480611232575061123182611f43565b5b9050919050565b61124281612025565b611281576040517f08c379a00000000000000000000000000000000000000000000000000000000081526004016112789061398b565b60405180910390fd5b50565b600033905090565b816004600083815260200190815260200160002060006101000a81548173ffffffffffffffffffffffffffffffffffffffff021916908373ffffffffffffffffffffffffffffffffffffffff160217905550808273ffffffffffffffffffffffffffffffffffffffff166112ff83610a76565b73ffffffffffffffffffffffffffffffffffffffff167f8c5be1e5ebec7d5bd14f71427d1e84f3dd0314c0f7b2291e5b200ac8c7c3b92560405160405180910390a45050565b60008061135183610a76565b90508073ffffffffffffffffffffffffffffffffffffffff168473ffffffffffffffffffffffffffffffffffffffff1614806113935750611392818561112b565b5b806113d157508373ffffffffffffffffffffffffffffffffffffffff166113b984610577565b73ffffffffffffffffffffffffffffffffffffffff16145b91505092915050565b8273ffffffffffffffffffffffffffffffffffffffff166113fa82610a76565b73ffffffffffffffffffffffffffffffffffffffff1614611450576040517f08c379a000000000000000000000000000000000000000000000000000000000815260040161144790614030565b60405180910390fd5b600073ffffffffffffffffffffffffffffffffffffffff168273ffffffffffffffffffffffffffffffffffffffff16036114bf576040517f08c379a00000000000000000000000000000000000000000000000000000000081526004016114b6906140c2565b60405180910390fd5b6114cc8383836001612066565b8273ffffffffffffffffffffffffffffffffffffffff166114ec82610a76565b73ffffffffffffffffffffffffffffffffffffffff1614611542576040517f08c379a000000000000000000000000000000000000000000000000000000000815260040161153990614030565b60405180910390fd5b6004600082815260200190815260200160002060006101000a81549073ffffffffffffffffffffffffffffffffffffffff02191690556001600360008573ffffffffffffffffffffffffffffffffffffffff1673ffffffffffffffffffffffffffffffffffffffff168152602001908152602001600020600082825403925050819055506001600360008473ffffffffffffffffffffffffffffffffffffffff1673ffffffffffffffffffffffffffffffffffffffff16815260200190815260200160002060008282540192505081905550816002600083815260200190815260200160002060006101000a81548173ffffffffffffffffffffffffffffffffffffffff021916908373ffffffffffffffffffffffffffffffffffffffff160217905550808273ffffffffffffffffffffffffffffffffffffffff168473ffffffffffffffffffffffffffffffffffffffff167fddf252ad1be2c89b69c2b068fc378daa952ba7f163c4a11628f55a4df523b3ef60405160405180910390a46116ce838383600161218c565b505050565b6116e4816116df611284565b612192565b50565b600081600001549050919050565b61170f828260405180602001604052806000815250612217565b5050565b6117ad83838360405160240161172b939291906140e2565b6040516020818303038152906040527f5970e089000000000000000000000000000000000000000000000000000000007bffffffffffffffffffffffffffffffffffffffffffffffffffffffff19166020820180517bffffffffffffffffffffffffffffffffffffffffffffffffffffffff8381831617835250505050612272565b505050565b6001816000016000828254019250508190555050565b6117d28282610bcb565b6118a55760016006600084815260200190815260200160002060000160008373ffffffffffffffffffffffffffffffffffffffff1673ffffffffffffffffffffffffffffffffffffffff16815260200190815260200160002060006101000a81548160ff02191690831515021790555061184a611284565b73ffffffffffffffffffffffffffffffffffffffff168173ffffffffffffffffffffffffffffffffffffffff16837f2f8788117e7eff1d82e926ec794901d17c78024a50270940304540a733656f0d60405160405180910390a45b5050565b6118b38282610bcb565b156119875760006006600084815260200190815260200160002060000160008373ffffffffffffffffffffffffffffffffffffffff1673ffffffffffffffffffffffffffffffffffffffff16815260200190815260200160002060006101000a81548160ff02191690831515021790555061192c611284565b73ffffffffffffffffffffffffffffffffffffffff168173ffffffffffffffffffffffffffffffffffffffff16837ff6391f5c32d9c69d2a47ea670b442974b53935d1edc7fd64eb21e047a839171b60405160405180910390a45b5050565b600061199682610a76565b90506119a6816000846001612066565b6119af82610a76565b90506004600083815260200190815260200160002060006101000a81549073ffffffffffffffffffffffffffffffffffffffff02191690556001600360008373ffffffffffffffffffffffffffffffffffffffff1673ffffffffffffffffffffffffffffffffffffffff168152602001908152602001600020600082825403925050819055506002600083815260200190815260200160002060006101000a81549073ffffffffffffffffffffffffffffffffffffffff021916905581600073ffffffffffffffffffffffffffffffffffffffff168273ffffffffffffffffffffffffffffffffffffffff167fddf252ad1be2c89b69c2b068fc378daa952ba7f163c4a11628f55a4df523b3ef60405160405180910390a4611ad581600084600161218c565b5050565b60006002600083815260200190815260200160002060009054906101000a900473ffffffffffffffffffffffffffffffffffffffff169050919050565b8173ffffffffffffffffffffffffffffffffffffffff168373ffffffffffffffffffffffffffffffffffffffff1603611b84576040517f08c379a0000000000000000000000000000000000000000000000000000000008152600401611b7b90614173565b60405180910390fd5b80600560008573ffffffffffffffffffffffffffffffffffffffff1673ffffffffffffffffffffffffffffffffffffffff16815260200190815260200160002060008473ffffffffffffffffffffffffffffffffffffffff1673ffffffffffffffffffffffffffffffffffffffff16815260200190815260200160002060006101000a81548160ff0219169083151502179055508173ffffffffffffffffffffffffffffffffffffffff168373ffffffffffffffffffffffffffffffffffffffff167f17307eab39ab6107e8899845ad3d59bd9653f200f220920489ca2b5937696c3183604051611c759190612b3c565b60405180910390a3505050565b611c8d8484846113da565b611c998484848461229b565b611cd8576040517f08c379a0000000000000000000000000000000000000000000000000000000008152600401611ccf90614205565b60405180910390fd5b50505050565b606060006001611ced84612422565b01905060008167ffffffffffffffff811115611d0c57611d0b612e1e565b5b6040519080825280601f01601f191660200182016040528015611d3e5781602001600182028036833780820191505090505b509050600082602001820190505b600115611da1578080600190039150507f3031323334353637383961626364656600000000000000000000000000000000600a86061a8153600a8581611d9557611d94614225565b5b04945060008503611d4c575b819350505050919050565b606060008251905060008103611dd45760405180602001604052806000815250915050611f3e565b60006003600283611de59190614283565b611def91906142b7565b6004611dfb91906142e8565b90506000602082611e0c9190614283565b67ffffffffffffffff811115611e2557611e24612e1e565b5b6040519080825280601f01601f191660200182016040528015611e575781602001600182028036833780820191505090505b50905060006040518060600160405280604081526020016146b0604091399050600181016020830160005b86811015611efb5760038101905062ffffff818a015116603f8160121c168401518060081b905060ff603f83600c1c1686015116810190508060081b905060ff603f8360061c1686015116810190508060081b905060ff603f831686015116810190508060e01b90508084526004840193505050611e82565b506003860660018114611f155760028114611f2557611f30565b613d3d60f01b6002830352611f30565b603d60f81b60018303525b508484525050819450505050505b919050565b60007f80ac58cd000000000000000000000000000000000000000000000000000000007bffffffffffffffffffffffffffffffffffffffffffffffffffffffff1916827bffffffffffffffffffffffffffffffffffffffffffffffffffffffff1916148061200e57507f5b5e139f000000000000000000000000000000000000000000000000000000007bffffffffffffffffffffffffffffffffffffffffffffffffffffffff1916827bffffffffffffffffffffffffffffffffffffffffffffffffffffffff1916145b8061201e575061201d82612575565b5b9050919050565b60008073ffffffffffffffffffffffffffffffffffffffff1661204783611ad9565b73ffffffffffffffffffffffffffffffffffffffff1614159050919050565b600181111561218657600073ffffffffffffffffffffffffffffffffffffffff168473ffffffffffffffffffffffffffffffffffffffff16146120fa5780600360008673ffffffffffffffffffffffffffffffffffffffff1673ffffffffffffffffffffffffffffffffffffffff16815260200190815260200160002060008282546120f2919061432a565b925050819055505b600073ffffffffffffffffffffffffffffffffffffffff168373ffffffffffffffffffffffffffffffffffffffff16146121855780600360008573ffffffffffffffffffffffffffffffffffffffff1673ffffffffffffffffffffffffffffffffffffffff168152602001908152602001600020600082825461217d9190614283565b925050819055505b5b50505050565b50505050565b61219c8282610bcb565b612213576121a9816125df565b6121b78360001c602061260c565b6040516020016121c89291906143f6565b6040516020818303038152906040526040517f08c379a000000000000000000000000000000000000000000000000000000000815260040161220a9190612be7565b60405180910390fd5b5050565b6122218383612848565b61222e600084848461229b565b61226d576040517f08c379a000000000000000000000000000000000000000000000000000000000815260040161226490614205565b60405180910390fd5b505050565b60008151905060006a636f6e736f6c652e6c6f679050602083016000808483855afa5050505050565b60006122bc8473ffffffffffffffffffffffffffffffffffffffff16612a65565b15612415578373ffffffffffffffffffffffffffffffffffffffff1663150b7a026122e5611284565b8786866040518563ffffffff1660e01b81526004016123079493929190614485565b6020604051808303816000875af192505050801561234357506040513d601f19601f8201168201806040525081019061234091906144e6565b60015b6123c5573d8060008114612373576040519150601f19603f3d011682016040523d82523d6000602084013e612378565b606091505b5060008151036123bd576040517f08c379a00000000000000000000000000000000000000000000000000000000081526004016123b490614205565b60405180910390fd5b805181602001fd5b63150b7a0260e01b7bffffffffffffffffffffffffffffffffffffffffffffffffffffffff1916817bffffffffffffffffffffffffffffffffffffffffffffffffffffffff19161491505061241a565b600190505b949350505050565b600080600090507a184f03e93ff9f4daa797ed6e38ed64bf6a1f0100000000000000008310612480577a184f03e93ff9f4daa797ed6e38ed64bf6a1f010000000000000000838161247657612475614225565b5b0492506040810190505b6d04ee2d6d415b85acef810000000083106124bd576d04ee2d6d415b85acef810000000083816124b3576124b2614225565b5b0492506020810190505b662386f26fc1000083106124ec57662386f26fc1000083816124e2576124e1614225565b5b0492506010810190505b6305f5e1008310612515576305f5e100838161250b5761250a614225565b5b0492506008810190505b612710831061253a5761271083816125305761252f614225565b5b0492506004810190505b6064831061255d576064838161255357612552614225565b5b0492506002810190505b600a831061256c576001810190505b80915050919050565b60007f01ffc9a7000000000000000000000000000000000000000000000000000000007bffffffffffffffffffffffffffffffffffffffffffffffffffffffff1916827bffffffffffffffffffffffffffffffffffffffffffffffffffffffff1916149050919050565b60606126058273ffffffffffffffffffffffffffffffffffffffff16601460ff1661260c565b9050919050565b60606000600283600261261f91906142e8565b6126299190614283565b67ffffffffffffffff81111561264257612641612e1e565b5b6040519080825280601f01601f1916602001820160405280156126745781602001600182028036833780820191505090505b5090507f3000000000000000000000000000000000000000000000000000000000000000816000815181106126ac576126ab614513565b5b60200101907effffffffffffffffffffffffffffffffffffffffffffffffffffffffffffff1916908160001a9053507f7800000000000000000000000000000000000000000000000000000000000000816001815181106127105761270f614513565b5b60200101907effffffffffffffffffffffffffffffffffffffffffffffffffffffffffffff1916908160001a9053506000600184600261275091906142e8565b61275a9190614283565b90505b60018111156127fa577f3031323334353637383961626364656600000000000000000000000000000000600f86166010811061279c5761279b614513565b5b1a60f81b8282815181106127b3576127b2614513565b5b60200101907effffffffffffffffffffffffffffffffffffffffffffffffffffffffffffff1916908160001a905350600485901c9450806127f390614542565b905061275d565b506000841461283e576040517f08c379a0000000000000000000000000000000000000000000000000000000008152600401612835906145b7565b60405180910390fd5b8091505092915050565b600073ffffffffffffffffffffffffffffffffffffffff168273ffffffffffffffffffffffffffffffffffffffff16036128b7576040517f08c379a00000000000000000000000000000000000000000000000000000000081526004016128ae90614623565b60405180910390fd5b6128c081612025565b15612900576040517f08c379a00000000000000000000000000000000000000000000000000000000081526004016128f79061468f565b60405180910390fd5b61290e600083836001612066565b61291781612025565b15612957576040517f08c379a000000000000000000000000000000000000000000000000000000000815260040161294e9061468f565b60405180910390fd5b6001600360008473ffffffffffffffffffffffffffffffffffffffff1673ffffffffffffffffffffffffffffffffffffffff16815260200190815260200160002060008282540192505081905550816002600083815260200190815260200160002060006101000a81548173ffffffffffffffffffffffffffffffffffffffff021916908373ffffffffffffffffffffffffffffffffffffffff160217905550808273ffffffffffffffffffffffffffffffffffffffff16600073ffffffffffffffffffffffffffffffffffffffff167fddf252ad1be2c89b69c2b068fc378daa952ba7f163c4a11628f55a4df523b3ef60405160405180910390a4612a6160008383600161218c565b5050565b6000808273ffffffffffffffffffffffffffffffffffffffff163b119050919050565b6000604051905090565b600080fd5b600080fd5b60007fffffffff0000000000000000000000000000000000000000000000000000000082169050919050565b612ad181612a9c565b8114612adc57600080fd5b50565b600081359050612aee81612ac8565b92915050565b600060208284031215612b0a57612b09612a92565b5b6000612b1884828501612adf565b91505092915050565b60008115159050919050565b612b3681612b21565b82525050565b6000602082019050612b516000830184612b2d565b92915050565b600081519050919050565b600082825260208201905092915050565b60005b83811015612b91578082015181840152602081019050612b76565b60008484015250505050565b6000601f19601f8301169050919050565b6000612bb982612b57565b612bc38185612b62565b9350612bd3818560208601612b73565b612bdc81612b9d565b840191505092915050565b60006020820190508181036000830152612c018184612bae565b905092915050565b6000819050919050565b612c1c81612c09565b8114612c2757600080fd5b50565b600081359050612c3981612c13565b92915050565b600060208284031215612c5557612c54612a92565b5b6000612c6384828501612c2a565b91505092915050565b600073ffffffffffffffffffffffffffffffffffffffff82169050919050565b6000612c9782612c6c565b9050919050565b612ca781612c8c565b82525050565b6000602082019050612cc26000830184612c9e565b92915050565b612cd181612c8c565b8114612cdc57600080fd5b50565b600081359050612cee81612cc8565b92915050565b60008060408385031215612d0b57612d0a612a92565b5b6000612d1985828601612cdf565b9250506020612d2a85828601612c2a565b9150509250929050565b600080600060608486031215612d4d57612d4c612a92565b5b6000612d5b86828701612cdf565b9350506020612d6c86828701612cdf565b9250506040612d7d86828701612c2a565b9150509250925092565b6000819050919050565b612d9a81612d87565b8114612da557600080fd5b50565b600081359050612db781612d91565b92915050565b600060208284031215612dd357612dd2612a92565b5b6000612de184828501612da8565b91505092915050565b612df381612d87565b82525050565b6000602082019050612e0e6000830184612dea565b92915050565b600080fd5b600080fd5b7f4e487b7100000000000000000000000000000000000000000000000000000000600052604160045260246000fd5b612e5682612b9d565b810181811067ffffffffffffffff82111715612e7557612e74612e1e565b5b80604052505050565b6000612e88612a88565b9050612e948282612e4d565b919050565b600067ffffffffffffffff821115612eb457612eb3612e1e565b5b612ebd82612b9d565b9050602081019050919050565b82818337600083830152505050565b6000612eec612ee784612e99565b612e7e565b905082815260208101848484011115612f0857612f07612e19565b5b612f13848285612eca565b509392505050565b600082601f830112612f3057612f2f612e14565b5b8135612f40848260208601612ed9565b91505092915050565b600080600080600080600080610100898b031215612f6a57612f69612a92565b5b6000612f788b828c01612cdf565b985050602089013567ffffffffffffffff811115612f9957612f98612a97565b5b612fa58b828c01612f1b565b975050604089013567ffffffffffffffff811115612fc657612fc5612a97565b5b612fd28b828c01612f1b565b9650506060612fe38b828c01612c2a565b9550506080612ff48b828c01612c2a565b94505060a06130058b828c01612c2a565b93505060c06130168b828c01612c2a565b92505060e06130278b828c01612c2a565b9150509295985092959890939650565b6000806040838503121561304e5761304d612a92565b5b600061305c85828601612da8565b925050602061306d85828601612cdf565b9150509250929050565b60006020828403121561308d5761308c612a92565b5b600061309b84828501612cdf565b91505092915050565b6130ad81612c09565b82525050565b60006020820190506130c860008301846130a4565b92915050565b600060e08201905081810360008301526130e8818a612bae565b905081810360208301526130fc8189612bae565b905061310b60408301886130a4565b61311860608301876130a4565b61312560808301866130a4565b61313260a08301856130a4565b61313f60c08301846130a4565b98975050505050505050565b61315481612b21565b811461315f57600080fd5b50565b6000813590506131718161314b565b92915050565b6000806040838503121561318e5761318d612a92565b5b600061319c85828601612cdf565b92505060206131ad85828601613162565b9150509250929050565b600067ffffffffffffffff8211156131d2576131d1612e1e565b5b6131db82612b9d565b9050602081019050919050565b60006131fb6131f6846131b7565b612e7e565b90508281526020810184848401111561321757613216612e19565b5b613222848285612eca565b509392505050565b600082601f83011261323f5761323e612e14565b5b813561324f8482602086016131e8565b91505092915050565b6000806000806080858703121561327257613271612a92565b5b600061328087828801612cdf565b945050602061329187828801612cdf565b93505060406132a287828801612c2a565b925050606085013567ffffffffffffffff8111156132c3576132c2612a97565b5b6132cf8782880161322a565b91505092959194509250565b600080604083850312156132f2576132f1612a92565b5b600061330085828601612cdf565b925050602061331185828601612cdf565b9150509250929050565b7f4e487b7100000000000000000000000000000000000000000000000000000000600052602260045260246000fd5b6000600282049050600182168061336257607f821691505b6020821081036133755761337461331b565b5b50919050565b7f4552433732313a20617070726f76616c20746f2063757272656e74206f776e6560008201527f7200000000000000000000000000000000000000000000000000000000000000602082015250565b60006133d7602183612b62565b91506133e28261337b565b604082019050919050565b60006020820190508181036000830152613406816133ca565b9050919050565b7f4552433732313a20617070726f76652063616c6c6572206973206e6f7420746f60008201527f6b656e206f776e6572206f7220617070726f76656420666f7220616c6c000000602082015250565b6000613469603d83612b62565b91506134748261340d565b604082019050919050565b600060208201905081810360008301526134988161345c565b9050919050565b7f4552433732313a2063616c6c6572206973206e6f7420746f6b656e206f776e6560008201527f72206f7220617070726f76656400000000000000000000000000000000000000602082015250565b60006134fb602d83612b62565b91506135068261349f565b604082019050919050565b6000602082019050818103600083015261352a816134ee565b9050919050565b60008190508160005260206000209050919050565b60006020601f8301049050919050565b600082821b905092915050565b6000600883026135937fffffffffffffffffffffffffffffffffffffffffffffffffffffffffffffffff82613556565b61359d8683613556565b95508019841693508086168417925050509392505050565b6000819050919050565b60006135da6135d56135d084612c09565b6135b5565b612c09565b9050919050565b6000819050919050565b6135f4836135bf565b613608613600826135e1565b848454613563565b825550505050565b600090565b61361d613610565b6136288184846135eb565b505050565b5b8181101561364c57613641600082613615565b60018101905061362e565b5050565b601f8211156136915761366281613531565b61366b84613546565b8101602085101561367a578190505b61368e61368685613546565b83018261362d565b50505b505050565b600082821c905092915050565b60006136b460001984600802613696565b1980831691505092915050565b60006136cd83836136a3565b9150826002028217905092915050565b6136e682612b57565b67ffffffffffffffff8111156136ff576136fe612e1e565b5b613709825461334a565b613714828285613650565b600060209050601f8311600181146137475760008415613735578287015190505b61373f85826136c1565b8655506137a7565b601f19841661375586613531565b60005b8281101561377d57848901518255600182019150602085019450602081019050613758565b8683101561379a5784890151613796601f8916826136a3565b8355505b6001600288020188555050505b505050505050565b6000815490506137be8161334a565b9050919050565b8181036137d35750506138ab565b6137dc826137af565b67ffffffffffffffff8111156137f5576137f4612e1e565b5b6137ff825461334a565b61380a828285613650565b6000601f8311600181146138395760008415613827578287015490505b61383185826136c1565b8655506138a4565b601f19841661384787613531565b965061385286613531565b60005b8281101561387a57848901548255600182019150600185019450602081019050613855565b868310156138975784890154613893601f8916826136a3565b8355505b6001600288020188555050505b5050505050505b565b7f416363657373436f6e74726f6c3a2063616e206f6e6c792072656e6f756e636560008201527f20726f6c657320666f722073656c660000000000000000000000000000000000602082015250565b6000613909602f83612b62565b9150613914826138ad565b604082019050919050565b60006020820190508181036000830152613938816138fc565b9050919050565b7f4552433732313a20696e76616c696420746f6b656e2049440000000000000000600082015250565b6000613975601883612b62565b91506139808261393f565b602082019050919050565b600060208201905081810360008301526139a481613968565b9050919050565b7f4552433732313a2061646472657373207a65726f206973206e6f74206120766160008201527f6c6964206f776e65720000000000000000000000000000000000000000000000602082015250565b6000613a07602983612b62565b9150613a12826139ab565b604082019050919050565b60006020820190508181036000830152613a36816139fa565b9050919050565b600081905092915050565b7f7b226e616d65223a202200000000000000000000000000000000000000000000600082015250565b6000613a7e600a83613a3d565b9150613a8982613a48565b600a82019050919050565b6000613a9f82612b57565b613aa98185613a3d565b9350613ab9818560208601612b73565b80840191505092915050565b7f202d2d204e465420233a20000000000000000000000000000000000000000000600082015250565b6000613afb600b83613a3d565b9150613b0682613ac5565b600b82019050919050565b7f222c20226465736372697074696f6e223a20225468697320697320616e204e4660008201527f542074686174206c6574732070656f706c6520706c617920616e64207472616460208201527f6520666f72206120536f6e69632047616d6521222c2022696d616765223a202260408201527f697066733a2f2f00000000000000000000000000000000000000000000000000606082015250565b6000613bb9606783613a3d565b9150613bc482613b11565b606782019050919050565b7f222c202261747472696275746573223a205b207b202274726169745f7479706560008201527f223a2022506572636965766564204c6f75646e657373222c202276616c75652260208201527f3a20000000000000000000000000000000000000000000000000000000000000604082015250565b6000613c51604283613a3d565b9150613c5c82613bcf565b604282019050919050565b7f7d2c207b202274726169745f74797065223a20225461696c204c656e6774682260008201527f2c202276616c7565223a20000000000000000000000000000000000000000000602082015250565b6000613cc3602b83613a3d565b9150613cce82613c67565b602b82019050919050565b7f7d2c207b202274726169745f74797065223a2022426f6479204c656e6774682260008201527f2c202276616c7565223a20000000000000000000000000000000000000000000602082015250565b6000613d35602b83613a3d565b9150613d4082613cd9565b602b82019050919050565b7f7d2c207b202274726169745f74797065223a202244796e616d69632052616e6760008201527f65222c202276616c7565223a2000000000000000000000000000000000000000602082015250565b6000613da7602d83613a3d565b9150613db282613d4b565b602d82019050919050565b7f7d2c20207b202274726169745f74797065223a20224475726174696f6e222c2060008201527f2276616c7565223a200000000000000000000000000000000000000000000000602082015250565b6000613e19602983613a3d565b9150613e2482613dbd565b602982019050919050565b7f7d205d7d00000000000000000000000000000000000000000000000000000000600082015250565b6000613e65600483613a3d565b9150613e7082613e2f565b600482019050919050565b6000613e8682613a71565b9150613e92828b613a94565b9150613e9d82613aee565b9150613ea9828a613a94565b9150613eb482613bac565b9150613ec08289613a94565b9150613ecb82613c44565b9150613ed78288613a94565b9150613ee282613cb6565b9150613eee8287613a94565b9150613ef982613d28565b9150613f058286613a94565b9150613f1082613d9a565b9150613f1c8285613a94565b9150613f2782613e0c565b9150613f338284613a94565b9150613f3e82613e58565b91508190509998505050505050505050565b7f646174613a6170706c69636174696f6e2f6a736f6e3b6261736536342c000000600082015250565b6000613f86601d83613a3d565b9150613f9182613f50565b601d82019050919050565b6000613fa782613f79565b9150613fb38284613a94565b915081905092915050565b7f4552433732313a207472616e736665722066726f6d20696e636f72726563742060008201527f6f776e6572000000000000000000000000000000000000000000000000000000602082015250565b600061401a602583612b62565b915061402582613fbe565b604082019050919050565b600060208201905081810360008301526140498161400d565b9050919050565b7f4552433732313a207472616e7366657220746f20746865207a65726f2061646460008201527f7265737300000000000000000000000000000000000000000000000000000000602082015250565b60006140ac602483612b62565b91506140b782614050565b604082019050919050565b600060208201905081810360008301526140db8161409f565b9050919050565b600060608201905081810360008301526140fc8186612bae565b905061410b60208301856130a4565b818103604083015261411d8184612bae565b9050949350505050565b7f4552433732313a20617070726f766520746f2063616c6c657200000000000000600082015250565b600061415d601983612b62565b915061416882614127565b602082019050919050565b6000602082019050818103600083015261418c81614150565b9050919050565b7f4552433732313a207472616e7366657220746f206e6f6e20455243373231526560008201527f63656976657220696d706c656d656e7465720000000000000000000000000000602082015250565b60006141ef603283612b62565b91506141fa82614193565b604082019050919050565b6000602082019050818103600083015261421e816141e2565b9050919050565b7f4e487b7100000000000000000000000000000000000000000000000000000000600052601260045260246000fd5b7f4e487b7100000000000000000000000000000000000000000000000000000000600052601160045260246000fd5b600061428e82612c09565b915061429983612c09565b92508282019050808211156142b1576142b0614254565b5b92915050565b60006142c282612c09565b91506142cd83612c09565b9250826142dd576142dc614225565b5b828204905092915050565b60006142f382612c09565b91506142fe83612c09565b925082820261430c81612c09565b9150828204841483151761432357614322614254565b5b5092915050565b600061433582612c09565b915061434083612c09565b925082820390508181111561435857614357614254565b5b92915050565b7f416363657373436f6e74726f6c3a206163636f756e7420000000000000000000600082015250565b6000614394601783613a3d565b915061439f8261435e565b601782019050919050565b7f206973206d697373696e6720726f6c6520000000000000000000000000000000600082015250565b60006143e0601183613a3d565b91506143eb826143aa565b601182019050919050565b600061440182614387565b915061440d8285613a94565b9150614418826143d3565b91506144248284613a94565b91508190509392505050565b600081519050919050565b600082825260208201905092915050565b600061445782614430565b614461818561443b565b9350614471818560208601612b73565b61447a81612b9d565b840191505092915050565b600060808201905061449a6000830187612c9e565b6144a76020830186612c9e565b6144b460408301856130a4565b81810360608301526144c6818461444c565b905095945050505050565b6000815190506144e081612ac8565b92915050565b6000602082840312156144fc576144fb612a92565b5b600061450a848285016144d1565b91505092915050565b7f4e487b7100000000000000000000000000000000000000000000000000000000600052603260045260246000fd5b600061454d82612c09565b9150600082036145605761455f614254565b5b600182039050919050565b7f537472696e67733a20686578206c656e67746820696e73756666696369656e74600082015250565b60006145a1602083612b62565b91506145ac8261456b565b602082019050919050565b600060208201905081810360008301526145d081614594565b9050919050565b7f4552433732313a206d696e7420746f20746865207a65726f2061646472657373600082015250565b600061460d602083612b62565b9150614618826145d7565b602082019050919050565b6000602082019050818103600083015261463c81614600565b9050919050565b7f4552433732313a20746f6b656e20616c7265616479206d696e74656400000000600082015250565b6000614679601c83612b62565b915061468482614643565b602082019050919050565b600060208201905081810360008301526146a88161466c565b905091905056fe4142434445464748494a4b4c4d4e4f505152535455565758595a6162636465666768696a6b6c6d6e6f707172737475767778797a303132333435363738392b2f4d696e746564204e465420772f20746f6b656e496420257320616e6420636861726163746572496e646578202573a264697066735822122074414fb8c68d2ee8ba3cd5addae34488f2b707fa41f5091bd328f5ba3cbd2b4764736f6c63430008110033",
  "linkReferences": {},
  "deployedLinkReferences": {}
}